:020000040800F2
:10000000680600208901000891010008930100089A
:100010009501000897010008990100080000000000
:100020000000000000000000000000009B0100082C
:100030009D010008000000009F010008A1010008C8
:10004000A3010008A3010008A3010008A301000800
:10005000A3010008A3010008A3010008A3010008F0
:10006000A3010008A3010008A3010008A3010008E0
:10007000A3010008A3010008A3010008A3010008D0
:10008000A3010008A3010008A3010008A3010008C0
:10009000A3010008A3010008A3010008A3010008B0
:1000A000A3010008A3010008A3010008A3010008A0
:1000B00019050008A3010008A3010008A301000816
:1000C000A3010008A3010008A3010008A301000880
:1000D000A3010008A3010008A3010008A301000870
:1000E000A3010008A3010008A301000800F002F822
:1000F00000F03AF80AA090E8000C82448344AAF188
:100100000107DA4501D100F02FF8AFF2090EBAE885
:100110000F0013F0010F18BFFB1A43F0010318473B
:100120000805000028050000103A24BF78C878C1EF
:10013000FAD8520724BF30C830C144BF04680C60ED
:10014000704700000023002400250026103A28BF35
:1001500078C1FBD8520728BF30C148BF0B60704739
:100160001FB51FBD10B510BD00F031F81146FFF7E7
:10017000F7FF00F019FA00F04FF803B4FFF7F2FFB1
:1001800003BC00F057F800000948804709480047C1
:10019000FEE7FEE7FEE7FEE7FEE7FEE7FEE7FEE737
:1001A000FEE7FEE704480549054A064B7047000094
:1001B000E9030008ED000008680000206806002040
:1001C000680200206802002070477047704775463B
:1001D00000F02CF8AE4605006946534620F00700B3
:1001E000854618B020B5FFF7DDFFBDE820404FF091
:1001F00000064FF000074FF000084FF0000B21F011
:100200000701AC46ACE8C009ACE8C009ACE8C009DD
:10021000ACE8C0098D46704710B50446AFF30080C6
:100220002046BDE81040FFF7A8BF00000048704717
:100230000400002001491820ABBEFEE726000200A2
:100240007047000000B50D48806800F4005098B970
:10025000142000F097F90948806800F4005058B95C
:1002600000BF0648806800F400500028F9D0142030
:1002700000F088F9012000BD0020FCE700100140DB
:100280001C48806940F015001A4988611A480068C6
:1002900020F00F00184908600846006840F002008E
:1002A00008600846006820F470000860084600688E
:1002B00040F4001008601148406820F470000F49B5
:1002C00048600846406840F4000048600846C0683E
:1002D00040F40050C86008480C30006820F020004E
:1002E00005490C3108600846006820F001000860EC
:1002F000704700000010024000080140001001405B
:1003000010B500F001F810BD0CB500200190009070
:100310003348006840F480303149086000BF3048FD
:10032000006800F4003000900198401C0190009893
:1003300018B90198B0F5A06FF1D12948006800F410
:10034000003010B10120009001E0002000900098E2
:10035000012843D12348006840F01000214908607B
:100360000846006820F0070008600846006840F072
:10037000020008601A484068194948600846406809
:1003800048600846406840F480604860084640681D
:1003900020F47C1048600846406840F4E81048604B
:1003A0000846006840F08070086000BF0C48006894
:1003B00000F000700028F9D00948406820F00300E0
:1003C000074948600846406840F00200486000BFA6
:1003D0000348406800F00C000828F9D10CBD00006B
:1003E000001002400020024010B51348006840F0A1
:1003F00001001149086008464068104908400E494C
:100400004860084600680E4908400B4908600846E5
:10041000006820F4802008600846406820F4FE0050
:1004200048604FF41F008860FFF76AFF4FF00060DC
:100430000449086010BD0000001002400000FFF8F1
:10044000FFFFF6FE08ED00E00A48C06940F0010039
:100450000849C86141F61F408904088541F2873088
:100460008885002088840846008840F001000880C4
:10047000704700000010024030B502468AB34FF0CA
:100480008040008A20F001004FF080410882002067
:1004900088840846808940F0010088811C20012161
:1004A0008140194B440943F8241000BF0221002861
:1004B00007DA0B071D0E154B00F00F04241F1D5506
:1004C00003E00B071C0E124B1C5400BF1C20012123
:1004D000814043099B0003F1E023C3F8001100BFF2
:1004E00011E0FFE74FF08040808920F001004FF0DD
:1004F000804188811C2001218140064B440943F83A
:10050000241000BF00BF30BD80E200E018ED00E025
:1005100000E400E080E100E04FF08040008A00F05D
:10052000010068B14FF08040008A20F001004FF0D8
:10053000804108820348006880F02000014908607B
:10054000704700000C0801400C48C06940F00200F0
:100550000A49C86147200A4908804FF6FF70091D03
:10056000088000200649091F0880054828380088AF
:1005700040F001000249283908807047001002400D
:1005800028040040002109E00022064B1A8000BF29
:10059000044A1288B2F57A7FFADB491C8142F3D310
:1005A0007047000024040040FFF76AFEFFF7CCFF0D
:1005B000FFF74AFF0020FFF75FFF30E018480068B0
:1005C00020F00100164908601648007820B9084656
:1005D000006820F0200008604FF4FA70FFF7D2FFA7
:1005E0000F48006840F001000D4908600D48007890
:1005F00020B90846006840F0200008604FF4FA7007
:10060000FFF7C0FFFFF71EFE48B10648007880F0F4
:1006100001000449087008460078FFF72DFFCDE778
:100620000C080140000000204806000800000020DF
:1006300004000000280100084C0600080400002007
:0C064000640600004401000800000000F7
:040000050800018965
:00000001FF
